{
	"_format": "hh-sol-artifact-1",
	"contractName": "Election",
	"sourceName": "contracts/Election.sol",
	"abi": [
		{
			"inputs": [
				{
					"internalType": "string[]",
					"name": "candidatsName",
					"type": "string[]"
				}
			],
			"stateMutability": "nonpayable",
			"type": "constructor"
		},
		{
			"anonymous": false,
			"inputs": [
				{
					"indexed": true,
					"internalType": "address",
					"name": "owner",
					"type": "address"
				},
				{
					"indexed": true,
					"internalType": "address",
					"name": "approved",
					"type": "address"
				},
				{
					"indexed": true,
					"internalType": "uint256",
					"name": "tokenId",
					"type": "uint256"
				}
			],
			"name": "Approval",
			"type": "event"
		},
		{
			"anonymous": false,
			"inputs": [
				{
					"indexed": true,
					"internalType": "address",
					"name": "owner",
					"type": "address"
				},
				{
					"indexed": true,
					"internalType": "address",
					"name": "operator",
					"type": "address"
				},
				{
					"indexed": false,
					"internalType": "bool",
					"name": "approved",
					"type": "bool"
				}
			],
			"name": "ApprovalForAll",
			"type": "event"
		},
		{
			"anonymous": false,
			"inputs": [
				{
					"indexed": true,
					"internalType": "address",
					"name": "voter",
					"type": "address"
				},
				{
					"indexed": true,
					"internalType": "address",
					"name": "delegate",
					"type": "address"
				}
			],
			"name": "Delegation",
			"type": "event"
		},
		{
			"anonymous": false,
			"inputs": [
				{
					"indexed": true,
					"internalType": "address",
					"name": "from",
					"type": "address"
				},
				{
					"indexed": true,
					"internalType": "address",
					"name": "to",
					"type": "address"
				},
				{
					"indexed": true,
					"internalType": "uint256",
					"name": "tokenId",
					"type": "uint256"
				}
			],
			"name": "Transfer",
			"type": "event"
		},
		{
			"anonymous": false,
			"inputs": [
				{
					"indexed": true,
					"internalType": "address",
					"name": "voter",
					"type": "address"
				},
				{
					"indexed": false,
					"internalType": "string",
					"name": "candidate",
					"type": "string"
				}
			],
			"name": "Vote",
			"type": "event"
		},
		{
			"inputs": [
				{
					"internalType": "address",
					"name": "to",
					"type": "address"
				},
				{
					"internalType": "uint256",
					"name": "tokenId",
					"type": "uint256"
				}
			],
			"name": "approve",
			"outputs": [],
			"stateMutability": "nonpayable",
			"type": "function"
		},
		{
			"inputs": [
				{
					"internalType": "address",
					"name": "owner",
					"type": "address"
				}
			],
			"name": "balanceOf",
			"outputs": [
				{
					"internalType": "uint256",
					"name": "",
					"type": "uint256"
				}
			],
			"stateMutability": "view",
			"type": "function"
		},
		{
			"inputs": [
				{
					"internalType": "uint256",
					"name": "",
					"type": "uint256"
				}
			],
			"name": "candidats",
			"outputs": [
				{
					"internalType": "string",
					"name": "name",
					"type": "string"
				},
				{
					"internalType": "uint256",
					"name": "voteCount",
					"type": "uint256"
				},
				{
					"internalType": "uint256",
					"name": "secondVoteCount",
					"type": "uint256"
				},
				{
					"internalType": "bool",
					"name": "pass",
					"type": "bool"
				}
			],
			"stateMutability": "view",
			"type": "function"
		},
		{
			"inputs": [
				{
					"internalType": "address",
					"name": "to",
					"type": "address"
				}
			],
			"name": "delegateFirst",
			"outputs": [],
			"stateMutability": "nonpayable",
			"type": "function"
		},
		{
			"inputs": [
				{
					"internalType": "address",
					"name": "to",
					"type": "address"
				}
			],
			"name": "delegateSecond",
			"outputs": [],
			"stateMutability": "nonpayable",
			"type": "function"
		},
		{
			"inputs": [
				{
					"internalType": "address",
					"name": "",
					"type": "address"
				}
			],
			"name": "electeurs",
			"outputs": [
				{
					"internalType": "uint256",
					"name": "weight",
					"type": "uint256"
				},
				{
					"internalType": "bool",
					"name": "voted",
					"type": "bool"
				},
				{
					"internalType": "bool",
					"name": "votedSecond",
					"type": "bool"
				},
				{
					"internalType": "address",
					"name": "delegate",
					"type": "address"
				},
				{
					"internalType": "uint256",
					"name": "vote",
					"type": "uint256"
				},
				{
					"internalType": "uint256",
					"name": "voteS",
					"type": "uint256"
				}
			],
			"stateMutability": "view",
			"type": "function"
		},
		{
			"inputs": [],
			"name": "endFirstVote",
			"outputs": [],
			"stateMutability": "nonpayable",
			"type": "function"
		},
		{
			"inputs": [],
			"name": "endSecondVote",
			"outputs": [],
			"stateMutability": "nonpayable",
			"type": "function"
		},
		{
			"inputs": [],
			"name": "getAllCandidats",
			"outputs": [
				{
					"components": [
						{
							"internalType": "string",
							"name": "name",
							"type": "string"
						},
						{
							"internalType": "uint256",
							"name": "voteCount",
							"type": "uint256"
						},
						{
							"internalType": "uint256",
							"name": "secondVoteCount",
							"type": "uint256"
						},
						{
							"internalType": "bool",
							"name": "pass",
							"type": "bool"
						}
					],
					"internalType": "struct Election.Candidat[]",
					"name": "",
					"type": "tuple[]"
				}
			],
			"stateMutability": "view",
			"type": "function"
		},
		{
			"inputs": [],
			"name": "getAllVotants",
			"outputs": [
				{
					"internalType": "address[]",
					"name": "",
					"type": "address[]"
				}
			],
			"stateMutability": "view",
			"type": "function"
		},
		{
			"inputs": [
				{
					"internalType": "uint256",
					"name": "tokenId",
					"type": "uint256"
				}
			],
			"name": "getApproved",
			"outputs": [
				{
					"internalType": "address",
					"name": "",
					"type": "address"
				}
			],
			"stateMutability": "view",
			"type": "function"
		},
		{
			"inputs": [],
			"name": "getInscrits",
			"outputs": [
				{
					"internalType": "uint256",
					"name": "",
					"type": "uint256"
				}
			],
			"stateMutability": "view",
			"type": "function"
		},
		{
			"inputs": [
				{
					"internalType": "address",
					"name": "_electeur",
					"type": "address"
				}
			],
			"name": "giveRightToVote",
			"outputs": [],
			"stateMutability": "nonpayable",
			"type": "function"
		},
		{
			"inputs": [
				{
					"internalType": "address",
					"name": "owner",
					"type": "address"
				},
				{
					"internalType": "address",
					"name": "operator",
					"type": "address"
				}
			],
			"name": "isApprovedForAll",
			"outputs": [
				{
					"internalType": "bool",
					"name": "",
					"type": "bool"
				}
			],
			"stateMutability": "view",
			"type": "function"
		},
		{
			"inputs": [],
			"name": "name",
			"outputs": [
				{
					"internalType": "string",
					"name": "",
					"type": "string"
				}
			],
			"stateMutability": "view",
			"type": "function"
		},
		{
			"inputs": [],
			"name": "owner",
			"outputs": [
				{
					"internalType": "address",
					"name": "",
					"type": "address"
				}
			],
			"stateMutability": "view",
			"type": "function"
		},
		{
			"inputs": [
				{
					"internalType": "uint256",
					"name": "tokenId",
					"type": "uint256"
				}
			],
			"name": "ownerOf",
			"outputs": [
				{
					"internalType": "address",
					"name": "",
					"type": "address"
				}
			],
			"stateMutability": "view",
			"type": "function"
		},
		{
			"inputs": [
				{
					"internalType": "uint256",
					"name": "_candidat",
					"type": "uint256"
				}
			],
			"name": "passSecondTour",
			"outputs": [],
			"stateMutability": "nonpayable",
			"type": "function"
		},
		{
			"inputs": [
				{
					"internalType": "address",
					"name": "from",
					"type": "address"
				},
				{
					"internalType": "address",
					"name": "to",
					"type": "address"
				},
				{
					"internalType": "uint256",
					"name": "tokenId",
					"type": "uint256"
				}
			],
			"name": "safeTransferFrom",
			"outputs": [],
			"stateMutability": "nonpayable",
			"type": "function"
		},
		{
			"inputs": [
				{
					"internalType": "address",
					"name": "from",
					"type": "address"
				},
				{
					"internalType": "address",
					"name": "to",
					"type": "address"
				},
				{
					"internalType": "uint256",
					"name": "tokenId",
					"type": "uint256"
				},
				{
					"internalType": "bytes",
					"name": "_data",
					"type": "bytes"
				}
			],
			"name": "safeTransferFrom",
			"outputs": [],
			"stateMutability": "nonpayable",
			"type": "function"
		},
		{
			"inputs": [
				{
					"internalType": "address",
					"name": "operator",
					"type": "address"
				},
				{
					"internalType": "bool",
					"name": "approved",
					"type": "bool"
				}
			],
			"name": "setApprovalForAll",
			"outputs": [],
			"stateMutability": "nonpayable",
			"type": "function"
		},
		{
			"inputs": [
				{
					"internalType": "bytes4",
					"name": "interfaceId",
					"type": "bytes4"
				}
			],
			"name": "supportsInterface",
			"outputs": [
				{
					"internalType": "bool",
					"name": "",
					"type": "bool"
				}
			],
			"stateMutability": "view",
			"type": "function"
		},
		{
			"inputs": [],
			"name": "symbol",
			"outputs": [
				{
					"internalType": "string",
					"name": "",
					"type": "string"
				}
			],
			"stateMutability": "view",
			"type": "function"
		},
		{
			"inputs": [
				{
					"internalType": "uint256",
					"name": "tokenId",
					"type": "uint256"
				}
			],
			"name": "tokenURI",
			"outputs": [
				{
					"internalType": "string",
					"name": "",
					"type": "string"
				}
			],
			"stateMutability": "view",
			"type": "function"
		},
		{
			"inputs": [],
			"name": "totalVotesPremier",
			"outputs": [
				{
					"internalType": "uint256",
					"name": "",
					"type": "uint256"
				}
			],
			"stateMutability": "view",
			"type": "function"
		},
		{
			"inputs": [],
			"name": "totalVotesSecond",
			"outputs": [
				{
					"internalType": "uint256",
					"name": "",
					"type": "uint256"
				}
			],
			"stateMutability": "view",
			"type": "function"
		},
		{
			"inputs": [
				{
					"internalType": "address",
					"name": "from",
					"type": "address"
				},
				{
					"internalType": "address",
					"name": "to",
					"type": "address"
				},
				{
					"internalType": "uint256",
					"name": "tokenId",
					"type": "uint256"
				}
			],
			"name": "transferFrom",
			"outputs": [],
			"stateMutability": "nonpayable",
			"type": "function"
		},
		{
			"inputs": [
				{
					"internalType": "uint256",
					"name": "",
					"type": "uint256"
				}
			],
			"name": "votants",
			"outputs": [
				{
					"internalType": "address",
					"name": "",
					"type": "address"
				}
			],
			"stateMutability": "view",
			"type": "function"
		},
		{
			"inputs": [
				{
					"internalType": "uint256",
					"name": "_candidat",
					"type": "uint256"
				}
			],
			"name": "votePremierTour",
			"outputs": [],
			"stateMutability": "nonpayable",
			"type": "function"
		},
		{
			"inputs": [
				{
					"internalType": "uint256",
					"name": "_candidat",
					"type": "uint256"
				}
			],
			"name": "voteSecondTour",
			"outputs": [],
			"stateMutability": "nonpayable",
			"type": "function"
		},
		{
			"inputs": [],
			"name": "winnerFirstName",
			"outputs": [
				{
					"internalType": "string",
					"name": "_winnerName",
					"type": "string"
				}
			],
			"stateMutability": "view",
			"type": "function"
		},
		{
			"inputs": [],
			"name": "winnerSecondName",
			"outputs": [
				{
					"internalType": "string",
					"name": "_winnerName",
					"type": "string"
				}
			],
			"stateMutability": "view",
			"type": "function"
		},
		{
			"inputs": [],
			"name": "winningProposalFirst",
			"outputs": [
				{
					"internalType": "uint256",
					"name": "_winningProposal",
					"type": "uint256"
				}
			],
			"stateMutability": "view",
			"type": "function"
		},
		{
			"inputs": [],
			"name": "winningProposalSecond",
			"outputs": [
				{
					"internalType": "uint256",
					"name": "_winningProposal",
					"type": "uint256"
				}
			],
			"stateMutability": "view",
			"type": "function"
		}
	],
	"bytecode": "0x60806040523480156200001157600080fd5b5060405162005a1938038062005a19833981810160405281019062000037919062000473565b6040518060400160405280600e81526020017f456c656374696f6e7320323032320000000000000000000000000000000000008152506040518060400160405280600881526020017f656c656374696f6e0000000000000000000000000000000000000000000000008152508160009080519060200190620000bb92919062000294565b508060019080519060200190620000d492919062000294565b50505033600860026101000a81548173ffffffffffffffffffffffffffffffffffffffff021916908373ffffffffffffffffffffffffffffffffffffffff1602179055506001600b6000600860029054906101000a900473ffffffffffffffffffffffffffffffffffffffff1673ffffffffffffffffffffffffffffffffffffffff1673ffffffffffffffffffffffffffffffffffffffff1681526020019081526020016000206000018190555060005b81518110156200028c57600c6040518060800160405280848481518110620001d6577f4e487b7100000000000000000000000000000000000000000000000000000000600052603260045260246000fd5b60200260200101518152602001600081526020016000815260200160001515815250908060018154018082558091505060019003906000526020600020906004020160009091909190915060008201518160000190805190602001906200023f92919062000294565b50602082015181600101556040820151816002015560608201518160030160006101000a81548160ff021916908315150217905550505080806200028390620005f2565b91505062000185565b5050620006de565b828054620002a29062000586565b90600052602060002090601f016020900481019282620002c6576000855562000312565b82601f10620002e157805160ff191683800117855562000312565b8280016001018555821562000312579182015b8281111562000311578251825591602001919060010190620002f4565b5b50905062000321919062000325565b5090565b5b808211156200034057600081600090555060010162000326565b5090565b60006200035b6200035584620004e1565b620004b8565b905080838252602082019050828560208602820111156200037b57600080fd5b60005b85811015620003ca57815167ffffffffffffffff8111156200039f57600080fd5b808601620003ae898262000446565b855260208501945060208401935050506001810190506200037e565b5050509392505050565b6000620003eb620003e58462000510565b620004b8565b9050828152602081018484840111156200040457600080fd5b6200041184828562000550565b509392505050565b600082601f8301126200042b57600080fd5b81516200043d84826020860162000344565b91505092915050565b600082601f8301126200045857600080fd5b81516200046a848260208601620003d4565b91505092915050565b6000602082840312156200048657600080fd5b600082015167ffffffffffffffff811115620004a157600080fd5b620004af8482850162000419565b91505092915050565b6000620004c4620004d7565b9050620004d28282620005bc565b919050565b6000604051905090565b600067ffffffffffffffff821115620004ff57620004fe6200069e565b5b602082029050602081019050919050565b600067ffffffffffffffff8211156200052e576200052d6200069e565b5b6200053982620006cd565b9050602081019050919050565b6000819050919050565b60005b838110156200057057808201518184015260208101905062000553565b8381111562000580576000848401525b50505050565b600060028204905060018216806200059f57607f821691505b60208210811415620005b657620005b56200066f565b5b50919050565b620005c782620006cd565b810181811067ffffffffffffffff82111715620005e957620005e86200069e565b5b80604052505050565b6000620005ff8262000546565b91507fffffffffffffffffffffffffffffffffffffffffffffffffffffffffffffffff82141562000635576200063462000640565b5b600182019050919050565b7f4e487b7100000000000000000000000000000000000000000000000000000000600052601160045260246000fd5b7f4e487b7100000000000000000000000000000000000000000000000000000000600052602260045260246000fd5b7f4e487b7100000000000000000000000000000000000000000000000000000000600052604160045260246000fd5b6000601f19601f8301169050919050565b61532b80620006ee6000396000f3fe608060405234801561001057600080fd5b50600436106102065760003560e01c806390fef6ad1161011a578063ba398607116100ad578063e985e9c51161007c578063e985e9c5146105ca578063ea6dc86c146105fa578063ec2e152714610618578063ecfb5d021461064d578063f37524761461065757610206565b8063ba39860714610542578063c31263601461055e578063c5c7ade51461057c578063c87b56dd1461059a57610206565b80639c7ca32c116100e95780639c7ca32c146104d25780639e7b8d61146104ee578063a22cb4651461050a578063b88d4fde1461052657610206565b806390fef6ad1461044857806392f8ccc51461046657806395d89b411461049657806398ff90f1146104b457610206565b8063353aefeb1161019d5780636380d4391161016c5780636380d4391461038d578063647aa953146103ab57806370a08231146103de5780637d8176bf1461040e5780638da5cb5b1461042a57610206565b8063353aefeb1461031b57806342842e0e146103375780634d3c3a8b146103535780636352211e1461035d57610206565b8063095ea7b3116101d9578063095ea7b3146102a757806322bc2f4b146102c3578063237a8246146102e157806323b872dd146102ff57610206565b806301ffc9a71461020b57806306fdde031461023b578063081812fc1461025957806308a4416514610289575b600080fd5b61022560048036038101906102209190613c6a565b610673565b6040516102329190614414565b60405180910390f35b610243610755565b604051610250919061442f565b60405180910390f35b610273600480360381019061026e9190613cbc565b6107e7565b6040516102809190614369565b60405180910390f35b61029161086c565b60405161029e91906143d0565b60405180910390f35b6102c160048036038101906102bc9190613c2e565b6108fa565b005b6102cb610a12565b6040516102d8919061442f565b60405180910390f35b6102e9610af4565b6040516102f691906147bf565b60405180910390f35b61031960048036038101906103149190613b28565b610bc8565b005b61033560048036038101906103309190613ac3565b610c28565b005b610351600480360381019061034c9190613b28565b6110f4565b005b61035b611114565b005b61037760048036038101906103729190613cbc565b611291565b6040516103849190614369565b60405180910390f35b610395611343565b6040516103a291906147bf565b60405180910390f35b6103c560048036038101906103c09190613cbc565b611349565b6040516103d59493929190614451565b60405180910390f35b6103f860048036038101906103f39190613ac3565b61141e565b60405161040591906147bf565b60405180910390f35b61042860048036038101906104239190613ac3565b6114d6565b005b6104326119f1565b60405161043f9190614369565b60405180910390f35b610450611a17565b60405161045d91906147bf565b60405180910390f35b610480600480360381019061047b9190613cbc565b611a1d565b60405161048d9190614369565b60405180910390f35b61049e611a5c565b6040516104ab919061442f565b60405180910390f35b6104bc611aee565b6040516104c991906143f2565b60405180910390f35b6104ec60048036038101906104e79190613cbc565b611c0e565b005b61050860048036038101906105039190613ac3565b611ed7565b005b610524600480360381019061051f9190613bf2565b6120f4565b005b610540600480360381019061053b9190613b77565b61210a565b005b61055c60048036038101906105579190613cbc565b61216c565b005b6105666122b2565b60405161057391906147bf565b60405180910390f35b6105846122bf565b604051610591919061442f565b60405180910390f35b6105b460048036038101906105af9190613cbc565b6123a1565b6040516105c1919061442f565b60405180910390f35b6105e460048036038101906105df9190613aec565b6124f3565b6040516105f19190614414565b60405180910390f35b610602612587565b60405161060f91906147bf565b60405180910390f35b610632600480360381019061062d9190613ac3565b61265b565b604051610644969594939291906147da565b60405180910390f35b6106556126d1565b005b610671600480360381019061066c9190613cbc565b61284e565b005b60007f80ac58cd000000000000000000000000000000000000000000000000000000007bffffffffffffffffffffffffffffffffffffffffffffffffffffffff1916827bffffffffffffffffffffffffffffffffffffffffffffffffffffffff1916148061073e57507f5b5e139f000000000000000000000000000000000000000000000000000000007bffffffffffffffffffffffffffffffffffffffffffffffffffffffff1916827bffffffffffffffffffffffffffffffffffffffffffffffffffffffff1916145b8061074e575061074d82612ac8565b5b9050919050565b60606000805461076490614add565b80601f016020809104026020016040519081016040528092919081815260200182805461079090614add565b80156107dd5780601f106107b2576101008083540402835291602001916107dd565b820191906000526020600020905b8154815290600101906020018083116107c057829003601f168201915b5050505050905090565b60006107f282612b32565b610831576040517f08c379a0000000000000000000000000000000000000000000000000000000008152600401610828906146ff565b60405180910390fd5b6004600083815260200190815260200160002060009054906101000a900473ffffffffffffffffffffffffffffffffffffffff169050919050565b6060600d8054806020026020016040519081016040528092919081815260200182805480156108f057602002820191906000526020600020905b8160009054906101000a900473ffffffffffffffffffffffffffffffffffffffff1673ffffffffffffffffffffffffffffffffffffffff16815260200190600101908083116108a6575b5050505050905090565b600061090582611291565b90508073ffffffffffffffffffffffffffffffffffffffff168373ffffffffffffffffffffffffffffffffffffffff161415610976576040517f08c379a000000000000000000000000000000000000000000000000000000000815260040161096d9061477f565b60405180910390fd5b8073ffffffffffffffffffffffffffffffffffffffff16610995612b9e565b73ffffffffffffffffffffffffffffffffffffffff1614806109c457506109c3816109be612b9e565b6124f3565b5b610a03576040517f08c379a00000000000000000000000000000000000000000000000000000000081526004016109fa9061461f565b60405180910390fd5b610a0d8383612ba6565b505050565b6060600c610a1e612587565b81548110610a55577f4e487b7100000000000000000000000000000000000000000000000000000000600052603260045260246000fd5b90600052602060002090600402016000018054610a7190614add565b80601f0160208091040260200160405190810160405280929190818152602001828054610a9d90614add565b8015610aea5780601f10610abf57610100808354040283529160200191610aea565b820191906000526020600020905b815481529060010190602001808311610acd57829003601f168201915b5050505050905090565b6000806000905060005b600c80549050811015610bc35781600c8281548110610b46577f4e487b7100000000000000000000000000000000000000000000000000000000600052603260045260246000fd5b9060005260206000209060040201600101541115610bb057600c8181548110610b98577f4e487b7100000000000000000000000000000000000000000000000000000000600052603260045260246000fd5b90600052602060002090600402016001015491508092505b8080610bbb90614b40565b915050610afe565b505090565b610bd9610bd3612b9e565b82612c5f565b610c18576040517f08c379a0000000000000000000000000000000000000000000000000000000008152600401610c0f9061479f565b60405180910390fd5b610c23838383612d3d565b505050565b6000600b60003373ffffffffffffffffffffffffffffffffffffffff1673ffffffffffffffffffffffffffffffffffffffff1681526020019081526020016000209050600860009054906101000a900460ff1615610cbb576040517f08c379a0000000000000000000000000000000000000000000000000000000008152600401610cb29061457f565b60405180910390fd5b600081600001541415610d03576040517f08c379a0000000000000000000000000000000000000000000000000000000008152600401610cfa9061473f565b60405180910390fd5b8060010160009054906101000a900460ff1615610d55576040517f08c379a0000000000000000000000000000000000000000000000000000000008152600401610d4c906145df565b60405180910390fd5b3373ffffffffffffffffffffffffffffffffffffffff168273ffffffffffffffffffffffffffffffffffffffff161415610dc4576040517f08c379a0000000000000000000000000000000000000000000000000000000008152600401610dbb906144bf565b60405180910390fd5b5b600073ffffffffffffffffffffffffffffffffffffffff16600b60008473ffffffffffffffffffffffffffffffffffffffff1673ffffffffffffffffffffffffffffffffffffffff16815260200190815260200160002060010160029054906101000a900473ffffffffffffffffffffffffffffffffffffffff1673ffffffffffffffffffffffffffffffffffffffff1614610f3457600b60008373ffffffffffffffffffffffffffffffffffffffff1673ffffffffffffffffffffffffffffffffffffffff16815260200190815260200160002060010160029054906101000a900473ffffffffffffffffffffffffffffffffffffffff1691503373ffffffffffffffffffffffffffffffffffffffff168273ffffffffffffffffffffffffffffffffffffffff161415610f2f576040517f08c379a0000000000000000000000000000000000000000000000000000000008152600401610f26906144bf565b60405180910390fd5b610dc5565b60018160010160006101000a81548160ff021916908315150217905550818160010160026101000a81548173ffffffffffffffffffffffffffffffffffffffff021916908373ffffffffffffffffffffffffffffffffffffffff1602179055506000600b60008473ffffffffffffffffffffffffffffffffffffffff1673ffffffffffffffffffffffffffffffffffffffff16815260200190815260200160002090508060010160009054906101000a900460ff1615611075576009600081548092919061100190614b40565b91905055508160000154600c826002015481548110611049577f4e487b7100000000000000000000000000000000000000000000000000000000600052603260045260246000fd5b90600052602060002090600402016001016000828254611069919061496c565b92505081905550611095565b816000015481600001600082825461108d919061496c565b925050819055505b8273ffffffffffffffffffffffffffffffffffffffff163373ffffffffffffffffffffffffffffffffffffffff167fd000f39f92c3ed77f890f16b6ced1555e0ab2cdf470522d2210de67d8c83d45b60405160405180910390a3505050565b61110f8383836040518060200160405280600081525061210a565b505050565b600860029054906101000a900473ffffffffffffffffffffffffffffffffffffffff1673ffffffffffffffffffffffffffffffffffffffff163373ffffffffffffffffffffffffffffffffffffffff16146111a4576040517f08c379a000000000000000000000000000000000000000000000000000000000815260040161119b906144ff565b60405180910390fd5b6001600860016101000a81548160ff02191690831515021790555060005b600d8054905081101561128e576000600b6000600d848154811061120f577f4e487b7100000000000000000000000000000000000000000000000000000000600052603260045260246000fd5b9060005260206000200160009054906101000a900473ffffffffffffffffffffffffffffffffffffffff1673ffffffffffffffffffffffffffffffffffffffff1673ffffffffffffffffffffffffffffffffffffffff16815260200190815260200160002060000181905550808061128690614b40565b9150506111c2565b50565b6000806002600084815260200190815260200160002060009054906101000a900473ffffffffffffffffffffffffffffffffffffffff169050600073ffffffffffffffffffffffffffffffffffffffff168173ffffffffffffffffffffffffffffffffffffffff16141561133a576040517f08c379a00000000000000000000000000000000000000000000000000000000081526004016113319061465f565b60405180910390fd5b80915050919050565b600a5481565b600c818154811061135957600080fd5b906000526020600020906004020160009150905080600001805461137c90614add565b80601f01602080910402602001604051908101604052809291908181526020018280546113a890614add565b80156113f55780601f106113ca576101008083540402835291602001916113f5565b820191906000526020600020905b8154815290600101906020018083116113d857829003601f168201915b5050505050908060010154908060020154908060030160009054906101000a900460ff16905084565b60008073ffffffffffffffffffffffffffffffffffffffff168273ffffffffffffffffffffffffffffffffffffffff16141561148f576040517f08c379a00000000000000000000000000000000000000000000000000000000081526004016114869061463f565b60405180910390fd5b600360008373ffffffffffffffffffffffffffffffffffffffff1673ffffffffffffffffffffffffffffffffffffffff168152602001908152602001600020549050919050565b6000600b60003373ffffffffffffffffffffffffffffffffffffffff1673ffffffffffffffffffffffffffffffffffffffff1681526020019081526020016000209050600860009054906101000a900460ff16611568576040517f08c379a000000000000000000000000000000000000000000000000000000000815260040161155f9061471f565b60405180910390fd5b600860019054906101000a900460ff16156115b8576040517f08c379a00000000000000000000000000000000000000000000000000000000081526004016115af9061455f565b60405180910390fd5b600081600001541415611600576040517f08c379a00000000000000000000000000000000000000000000000000000000081526004016115f79061473f565b60405180910390fd5b8060010160019054906101000a900460ff1615611652576040517f08c379a0000000000000000000000000000000000000000000000000000000008152600401611649906145df565b60405180910390fd5b3373ffffffffffffffffffffffffffffffffffffffff168273ffffffffffffffffffffffffffffffffffffffff1614156116c1576040517f08c379a00000000000000000000000000000000000000000000000000000000081526004016116b8906144bf565b60405180910390fd5b5b600073ffffffffffffffffffffffffffffffffffffffff16600b60008473ffffffffffffffffffffffffffffffffffffffff1673ffffffffffffffffffffffffffffffffffffffff16815260200190815260200160002060010160029054906101000a900473ffffffffffffffffffffffffffffffffffffffff1673ffffffffffffffffffffffffffffffffffffffff161461183157600b60008373ffffffffffffffffffffffffffffffffffffffff1673ffffffffffffffffffffffffffffffffffffffff16815260200190815260200160002060010160029054906101000a900473ffffffffffffffffffffffffffffffffffffffff1691503373ffffffffffffffffffffffffffffffffffffffff168273ffffffffffffffffffffffffffffffffffffffff16141561182c576040517f08c379a0000000000000000000000000000000000000000000000000000000008152600401611823906144bf565b60405180910390fd5b6116c2565b60018160010160016101000a81548160ff021916908315150217905550818160010160026101000a81548173ffffffffffffffffffffffffffffffffffffffff021916908373ffffffffffffffffffffffffffffffffffffffff1602179055506000600b60008473ffffffffffffffffffffffffffffffffffffffff1673ffffffffffffffffffffffffffffffffffffffff16815260200190815260200160002090508060010160019054906101000a900460ff1615611972578160000154600c82600301548154811061192e577f4e487b7100000000000000000000000000000000000000000000000000000000600052603260045260246000fd5b9060005260206000209060040201600201600082825461194e919061496c565b92505081905550600a600081548092919061196890614b40565b9190505550611992565b816000015481600001600082825461198a919061496c565b925050819055505b8273ffffffffffffffffffffffffffffffffffffffff163373ffffffffffffffffffffffffffffffffffffffff167fd000f39f92c3ed77f890f16b6ced1555e0ab2cdf470522d2210de67d8c83d45b60405160405180910390a3505050565b600860029054906101000a900473ffffffffffffffffffffffffffffffffffffffff1681565b60095481565b600d8181548110611a2d57600080fd5b906000526020600020016000915054906101000a900473ffffffffffffffffffffffffffffffffffffffff1681565b606060018054611a6b90614add565b80601f0160208091040260200160405190810160405280929190818152602001828054611a9790614add565b8015611ae45780601f10611ab957610100808354040283529160200191611ae4565b820191906000526020600020905b815481529060010190602001808311611ac757829003601f168201915b5050505050905090565b6060600c805480602002602001604051908101604052809291908181526020016000905b82821015611c055783829060005260206000209060040201604051806080016040529081600082018054611b4590614add565b80601f0160208091040260200160405190810160405280929190818152602001828054611b7190614add565b8015611bbe5780601f10611b9357610100808354040283529160200191611bbe565b820191906000526020600020905b815481529060010190602001808311611ba157829003601f168201915b5050505050815260200160018201548152602001600282015481526020016003820160009054906101000a900460ff16151515158152505081526020019060010190611b12565b50505050905090565b6000600b60003373ffffffffffffffffffffffffffffffffffffffff1673ffffffffffffffffffffffffffffffffffffffff1681526020019081526020016000209050600860009054906101000a900460ff16611ca0576040517f08c379a0000000000000000000000000000000000000000000000000000000008152600401611c979061471f565b60405180910390fd5b600860019054906101000a900460ff1615611cf0576040517f08c379a0000000000000000000000000000000000000000000000000000000008152600401611ce79061455f565b60405180910390fd5b600081600001541415611d38576040517f08c379a0000000000000000000000000000000000000000000000000000000008152600401611d2f9061473f565b60405180910390fd5b8060010160019054906101000a900460ff1615611d8a576040517f08c379a0000000000000000000000000000000000000000000000000000000008152600401611d81906145df565b60405180910390fd5b60018160010160016101000a81548160ff0219169083151502179055508181600301819055508060000154600a6000828254611dc6919061496c565b92505081905550611dd5612fa4565b8060000154600c8381548110611e14577f4e487b7100000000000000000000000000000000000000000000000000000000600052603260045260246000fd5b90600052602060002090600402016002016000828254611e34919061496c565b925050819055503373ffffffffffffffffffffffffffffffffffffffff167fc8890be6e657dc734d1fb91641621bd1bc2bf263edd04e4198b4db572cc680f6600c8481548110611ead577f4e487b7100000000000000000000000000000000000000000000000000000000600052603260045260246000fd5b9060005260206000209060040201600001604051611ecb919061449d565b60405180910390a25050565b600860029054906101000a900473ffffffffffffffffffffffffffffffffffffffff1673ffffffffffffffffffffffffffffffffffffffff163373ffffffffffffffffffffffffffffffffffffffff1614611f67576040517f08c379a0000000000000000000000000000000000000000000000000000000008152600401611f5e906144ff565b60405180910390fd5b600b60008273ffffffffffffffffffffffffffffffffffffffff1673ffffffffffffffffffffffffffffffffffffffff16815260200190815260200160002060010160009054906101000a900460ff1615611ff7576040517f08c379a0000000000000000000000000000000000000000000000000000000008152600401611fee9061469f565b60405180910390fd5b6000600b60008373ffffffffffffffffffffffffffffffffffffffff1673ffffffffffffffffffffffffffffffffffffffff168152602001908152602001600020600001541461204657600080fd5b6001600b60008373ffffffffffffffffffffffffffffffffffffffff1673ffffffffffffffffffffffffffffffffffffffff16815260200190815260200160002060000181905550600d819080600181540180825580915050600190039060005260206000200160009091909190916101000a81548173ffffffffffffffffffffffffffffffffffffffff021916908373ffffffffffffffffffffffffffffffffffffffff16021790555050565b6121066120ff612b9e565b8383613008565b5050565b61211b612115612b9e565b83612c5f565b61215a576040517f08c379a00000000000000000000000000000000000000000000000000000000081526004016121519061479f565b60405180910390fd5b61216684848484613175565b50505050565b600860029054906101000a900473ffffffffffffffffffffffffffffffffffffffff1673ffffffffffffffffffffffffffffffffffffffff163373ffffffffffffffffffffffffffffffffffffffff16146121fc576040517f08c379a00000000000000000000000000000000000000000000000000000000081526004016121f3906144ff565b60405180910390fd5b600860009054906101000a900460ff1661224b576040517f08c379a00000000000000000000000000000000000000000000000000000000081526004016122429061471f565b60405180910390fd5b6001600c8281548110612287577f4e487b7100000000000000000000000000000000000000000000000000000000600052603260045260246000fd5b906000526020600020906004020160030160006101000a81548160ff02191690831515021790555050565b6000600d80549050905090565b6060600c6122cb610af4565b81548110612302577f4e487b7100000000000000000000000000000000000000000000000000000000600052603260045260246000fd5b9060005260206000209060040201600001805461231e90614add565b80601f016020809104026020016040519081016040528092919081815260200182805461234a90614add565b80156123975780601f1061236c57610100808354040283529160200191612397565b820191906000526020600020905b81548152906001019060200180831161237a57829003601f168201915b5050505050905090565b60606123ac82612b32565b6123eb576040517f08c379a00000000000000000000000000000000000000000000000000000000081526004016123e2906146df565b60405180910390fd5b600060066000848152602001908152602001600020805461240b90614add565b80601f016020809104026020016040519081016040528092919081815260200182805461243790614add565b80156124845780601f1061245957610100808354040283529160200191612484565b820191906000526020600020905b81548152906001019060200180831161246757829003601f168201915b5050505050905060006124956131d1565b90506000815114156124ab5781925050506124ee565b6000825111156124e05780826040516020016124c8929190614345565b604051602081830303815290604052925050506124ee565b6124e9846131e8565b925050505b919050565b6000600560008473ffffffffffffffffffffffffffffffffffffffff1673ffffffffffffffffffffffffffffffffffffffff16815260200190815260200160002060008373ffffffffffffffffffffffffffffffffffffffff1673ffffffffffffffffffffffffffffffffffffffff16815260200190815260200160002060009054906101000a900460ff16905092915050565b6000806000905060005b600c805490508110156126565781600c82815481106125d9577f4e487b7100000000000000000000000000000000000000000000000000000000600052603260045260246000fd5b906000526020600020906004020160020154111561264357600c818154811061262b577f4e487b7100000000000000000000000000000000000000000000000000000000600052603260045260246000fd5b90600052602060002090600402016002015491508092505b808061264e90614b40565b915050612591565b505090565b600b6020528060005260406000206000915090508060000154908060010160009054906101000a900460ff16908060010160019054906101000a900460ff16908060010160029054906101000a900473ffffffffffffffffffffffffffffffffffffffff16908060020154908060030154905086565b600860029054906101000a900473ffffffffffffffffffffffffffffffffffffffff1673ffffffffffffffffffffffffffffffffffffffff163373ffffffffffffffffffffffffffffffffffffffff1614612761576040517f08c379a0000000000000000000000000000000000000000000000000000000008152600401612758906144ff565b60405180910390fd5b6001600860006101000a81548160ff02191690831515021790555060005b600d8054905081101561284b576001600b6000600d84815481106127cc577f4e487b7100000000000000000000000000000000000000000000000000000000600052603260045260246000fd5b9060005260206000200160009054906101000a900473ffffffffffffffffffffffffffffffffffffffff1673ffffffffffffffffffffffffffffffffffffffff1673ffffffffffffffffffffffffffffffffffffffff16815260200190815260200160002060000181905550808061284390614b40565b91505061277f565b50565b6000600b60003373ffffffffffffffffffffffffffffffffffffffff1673ffffffffffffffffffffffffffffffffffffffff1681526020019081526020016000209050600860009054906101000a900460ff16156128e1576040517f08c379a00000000000000000000000000000000000000000000000000000000081526004016128d89061457f565b60405180910390fd5b600081600001541415612929576040517f08c379a00000000000000000000000000000000000000000000000000000000081526004016129209061473f565b60405180910390fd5b8060010160009054906101000a900460ff161561297b576040517f08c379a0000000000000000000000000000000000000000000000000000000008152600401612972906145df565b60405180910390fd5b60018160010160006101000a81548160ff0219169083151502179055508181600201819055508060000154600960008282546129b7919061496c565b925050819055506129c661328f565b8060000154600c8381548110612a05577f4e487b7100000000000000000000000000000000000000000000000000000000600052603260045260246000fd5b90600052602060002090600402016001016000828254612a25919061496c565b925050819055503373ffffffffffffffffffffffffffffffffffffffff167fc8890be6e657dc734d1fb91641621bd1bc2bf263edd04e4198b4db572cc680f6600c8481548110612a9e577f4e487b7100000000000000000000000000000000000000000000000000000000600052603260045260246000fd5b9060005260206000209060040201600001604051612abc919061449d565b60405180910390a25050565b60007f01ffc9a7000000000000000000000000000000000000000000000000000000007bffffffffffffffffffffffffffffffffffffffffffffffffffffffff1916827bffffffffffffffffffffffffffffffffffffffffffffffffffffffff1916149050919050565b60008073ffffffffffffffffffffffffffffffffffffffff166002600084815260200190815260200160002060009054906101000a900473ffffffffffffffffffffffffffffffffffffffff1673ffffffffffffffffffffffffffffffffffffffff1614159050919050565b600033905090565b816004600083815260200190815260200160002060006101000a81548173ffffffffffffffffffffffffffffffffffffffff021916908373ffffffffffffffffffffffffffffffffffffffff160217905550808273ffffffffffffffffffffffffffffffffffffffff16612c1983611291565b73ffffffffffffffffffffffffffffffffffffffff167f8c5be1e5ebec7d5bd14f71427d1e84f3dd0314c0f7b2291e5b200ac8c7c3b92560405160405180910390a45050565b6000612c6a82612b32565b612ca9576040517f08c379a0000000000000000000000000000000000000000000000000000000008152600401612ca0906145ff565b60405180910390fd5b6000612cb483611291565b90508073ffffffffffffffffffffffffffffffffffffffff168473ffffffffffffffffffffffffffffffffffffffff161480612d2357508373ffffffffffffffffffffffffffffffffffffffff16612d0b846107e7565b73ffffffffffffffffffffffffffffffffffffffff16145b80612d345750612d3381856124f3565b5b91505092915050565b8273ffffffffffffffffffffffffffffffffffffffff16612d5d82611291565b73ffffffffffffffffffffffffffffffffffffffff1614612db3576040517f08c379a0000000000000000000000000000000000000000000000000000000008152600401612daa9061451f565b60405180910390fd5b600073ffffffffffffffffffffffffffffffffffffffff168273ffffffffffffffffffffffffffffffffffffffff161415612e23576040517f08c379a0000000000000000000000000000000000000000000000000000000008152600401612e1a9061459f565b60405180910390fd5b612e2e8383836132f3565b612e39600082612ba6565b6001600360008573ffffffffffffffffffffffffffffffffffffffff1673ffffffffffffffffffffffffffffffffffffffff1681526020019081526020016000206000828254612e8991906149f3565b925050819055506001600360008473ffffffffffffffffffffffffffffffffffffffff1673ffffffffffffffffffffffffffffffffffffffff1681526020019081526020016000206000828254612ee0919061496c565b92505081905550816002600083815260200190815260200160002060006101000a81548173ffffffffffffffffffffffffffffffffffffffff021916908373ffffffffffffffffffffffffffffffffffffffff160217905550808273ffffffffffffffffffffffffffffffffffffffff168473ffffffffffffffffffffffffffffffffffffffff167fddf252ad1be2c89b69c2b068fc378daa952ba7f163c4a11628f55a4df523b3ef60405160405180910390a4612f9f8383836132f8565b505050565b6000612fb060076132fd565b9050612fbc338261330b565b612ffb816040518060400160405280601d81526020017f68747470733a2f2f6a736f6e6b65657065722e636f6d2f622f4d46494c000000815250613329565b613005600761339d565b50565b8173ffffffffffffffffffffffffffffffffffffffff168373ffffffffffffffffffffffffffffffffffffffff161415613077576040517f08c379a000000000000000000000000000000000000000000000000000000000815260040161306e906145bf565b60405180910390fd5b80600560008573ffffffffffffffffffffffffffffffffffffffff1673ffffffffffffffffffffffffffffffffffffffff16815260200190815260200160002060008473ffffffffffffffffffffffffffffffffffffffff1673ffffffffffffffffffffffffffffffffffffffff16815260200190815260200160002060006101000a81548160ff0219169083151502179055508173ffffffffffffffffffffffffffffffffffffffff168373ffffffffffffffffffffffffffffffffffffffff167f17307eab39ab6107e8899845ad3d59bd9653f200f220920489ca2b5937696c31836040516131689190614414565b60405180910390a3505050565b613180848484612d3d565b61318c848484846133b3565b6131cb576040517f08c379a00000000000000000000000000000000000000000000000000000000081526004016131c2906144df565b60405180910390fd5b50505050565b606060405180602001604052806000815250905090565b60606131f382612b32565b613232576040517f08c379a00000000000000000000000000000000000000000000000000000000081526004016132299061475f565b60405180910390fd5b600061323c6131d1565b9050600081511161325c5760405180602001604052806000815250613287565b806132668461354a565b604051602001613277929190614345565b6040516020818303038152906040525b915050919050565b600061329b60076132fd565b90506132a7338261330b565b6132e6816040518060400160405280601d81526020017f68747470733a2f2f6a736f6e6b65657065722e636f6d2f622f55365746000000815250613329565b6132f0600761339d565b50565b505050565b505050565b600081600001549050919050565b6133258282604051806020016040528060008152506136f7565b5050565b61333282612b32565b613371576040517f08c379a00000000000000000000000000000000000000000000000000000000081526004016133689061467f565b60405180910390fd5b8060066000848152602001908152602001600020908051906020019061339892919061394f565b505050565b6001816000016000828254019250508190555050565b60006133d48473ffffffffffffffffffffffffffffffffffffffff16613752565b1561353d578373ffffffffffffffffffffffffffffffffffffffff1663150b7a026133fd612b9e565b8786866040518563ffffffff1660e01b815260040161341f9493929190614384565b602060405180830381600087803b15801561343957600080fd5b505af192505050801561346a57506040513d601f19601f820116820180604052508101906134679190613c93565b60015b6134ed573d806000811461349a576040519150601f19603f3d011682016040523d82523d6000602084013e61349f565b606091505b506000815114156134e5576040517f08c379a00000000000000000000000000000000000000000000000000000000081526004016134dc906144df565b60405180910390fd5b805181602001fd5b63150b7a0260e01b7bffffffffffffffffffffffffffffffffffffffffffffffffffffffff1916817bffffffffffffffffffffffffffffffffffffffffffffffffffffffff191614915050613542565b600190505b949350505050565b60606000821415613592576040518060400160405280600181526020017f300000000000000000000000000000000000000000000000000000000000000081525090506136f2565b600082905060005b600082146135c45780806135ad90614b40565b915050600a826135bd91906149c2565b915061359a565b60008167ffffffffffffffff811115613606577f4e487b7100000000000000000000000000000000000000000000000000000000600052604160045260246000fd5b6040519080825280601f01601f1916602001820160405280156136385781602001600182028036833780820191505090505b5090505b600085146136eb5760018261365191906149f3565b9150600a856136609190614b89565b603061366c919061496c565b60f81b8183815181106136a8577f4e487b7100000000000000000000000000000000000000000000000000000000600052603260045260246000fd5b60200101907effffffffffffffffffffffffffffffffffffffffffffffffffffffffffffff1916908160001a905350600a856136e491906149c2565b945061363c565b8093505050505b919050565b6137018383613775565b61370e60008484846133b3565b61374d576040517f08c379a0000000000000000000000000000000000000000000000000000000008152600401613744906144df565b60405180910390fd5b505050565b6000808273ffffffffffffffffffffffffffffffffffffffff163b119050919050565b600073ffffffffffffffffffffffffffffffffffffffff168273ffffffffffffffffffffffffffffffffffffffff1614156137e5576040517f08c379a00000000000000000000000000000000000000000000000000000000081526004016137dc906146bf565b60405180910390fd5b6137ee81612b32565b1561382e576040517f08c379a00000000000000000000000000000000000000000000000000000000081526004016138259061453f565b60405180910390fd5b61383a600083836132f3565b6001600360008473ffffffffffffffffffffffffffffffffffffffff1673ffffffffffffffffffffffffffffffffffffffff168152602001908152602001600020600082825461388a919061496c565b92505081905550816002600083815260200190815260200160002060006101000a81548173ffffffffffffffffffffffffffffffffffffffff021916908373ffffffffffffffffffffffffffffffffffffffff160217905550808273ffffffffffffffffffffffffffffffffffffffff16600073ffffffffffffffffffffffffffffffffffffffff167fddf252ad1be2c89b69c2b068fc378daa952ba7f163c4a11628f55a4df523b3ef60405160405180910390a461394b600083836132f8565b5050565b82805461395b90614add565b90600052602060002090601f01602090048101928261397d57600085556139c4565b82601f1061399657805160ff19168380011785556139c4565b828001600101855582156139c4579182015b828111156139c35782518255916020019190600101906139a8565b5b5090506139d191906139d5565b5090565b5b808211156139ee5760008160009055506001016139d6565b5090565b6000613a05613a0084614860565b61483b565b905082815260208101848484011115613a1d57600080fd5b613a28848285614a9b565b509392505050565b600081359050613a3f81615299565b92915050565b600081359050613a54816152b0565b92915050565b600081359050613a69816152c7565b92915050565b600081519050613a7e816152c7565b92915050565b600082601f830112613a9557600080fd5b8135613aa58482602086016139f2565b91505092915050565b600081359050613abd816152de565b92915050565b600060208284031215613ad557600080fd5b6000613ae384828501613a30565b91505092915050565b60008060408385031215613aff57600080fd5b6000613b0d85828601613a30565b9250506020613b1e85828601613a30565b9150509250929050565b600080600060608486031215613b3d57600080fd5b6000613b4b86828701613a30565b9350506020613b5c86828701613a30565b9250506040613b6d86828701613aae565b9150509250925092565b60008060008060808587031215613b8d57600080fd5b6000613b9b87828801613a30565b9450506020613bac87828801613a30565b9350506040613bbd87828801613aae565b925050606085013567ffffffffffffffff811115613bda57600080fd5b613be687828801613a84565b91505092959194509250565b60008060408385031215613c0557600080fd5b6000613c1385828601613a30565b9250506020613c2485828601613a45565b9150509250929050565b60008060408385031215613c4157600080fd5b6000613c4f85828601613a30565b9250506020613c6085828601613aae565b9150509250929050565b600060208284031215613c7c57600080fd5b6000613c8a84828501613a5a565b91505092915050565b600060208284031215613ca557600080fd5b6000613cb384828501613a6f565b91505092915050565b600060208284031215613cce57600080fd5b6000613cdc84828501613aae565b91505092915050565b6000613cf18383613d11565b60208301905092915050565b6000613d0983836142c4565b905092915050565b613d1a81614a27565b82525050565b613d2981614a27565b82525050565b6000613d3a826148c6565b613d44818561490c565b9350613d4f83614891565b8060005b83811015613d80578151613d678882613ce5565b9750613d72836148f2565b925050600181019050613d53565b5085935050505092915050565b6000613d98826148d1565b613da2818561491d565b935083602082028501613db4856148a1565b8060005b85811015613df05784840389528151613dd18582613cfd565b9450613ddc836148ff565b925060208a01995050600181019050613db8565b50829750879550505050505092915050565b613e0b81614a39565b82525050565b613e1a81614a39565b82525050565b6000613e2b826148dc565b613e35818561492e565b9350613e45818560208601614aaa565b613e4e81614c76565b840191505092915050565b6000613e64826148e7565b613e6e818561493f565b9350613e7e818560208601614aaa565b613e8781614c76565b840191505092915050565b6000613e9d826148e7565b613ea78185614950565b9350613eb7818560208601614aaa565b613ec081614c76565b840191505092915050565b6000613ed6826148e7565b613ee08185614961565b9350613ef0818560208601614aaa565b80840191505092915050565b60008154613f0981614add565b613f138186614950565b94506001821660008114613f2e5760018114613f4057613f73565b60ff1983168652602086019350613f73565b613f49856148b1565b60005b83811015613f6b57815481890152600182019150602081019050613f4c565b808801955050505b50505092915050565b6000613f89603283614950565b9150613f9482614c87565b604082019050919050565b6000613fac603283614950565b9150613fb782614cd6565b604082019050919050565b6000613fcf601583614950565b9150613fda82614d25565b602082019050919050565b6000613ff2602583614950565b9150613ffd82614d4e565b604082019050919050565b6000614015601c83614950565b915061402082614d9d565b602082019050919050565b6000614038601883614950565b915061404382614dc6565b602082019050919050565b600061405b601983614950565b915061406682614def565b602082019050919050565b600061407e602483614950565b915061408982614e18565b604082019050919050565b60006140a1601983614950565b91506140ac82614e67565b602082019050919050565b60006140c4600d83614950565b91506140cf82614e90565b602082019050919050565b60006140e7602c83614950565b91506140f282614eb9565b604082019050919050565b600061410a603883614950565b915061411582614f08565b604082019050919050565b600061412d602a83614950565b915061413882614f57565b604082019050919050565b6000614150602983614950565b915061415b82614fa6565b604082019050919050565b6000614173602e83614950565b915061417e82614ff5565b604082019050919050565b6000614196600e83614950565b91506141a182615044565b602082019050919050565b60006141b9602083614950565b91506141c48261506d565b602082019050919050565b60006141dc603183614950565b91506141e782615096565b604082019050919050565b60006141ff602c83614950565b915061420a826150e5565b604082019050919050565b6000614222601a83614950565b915061422d82615134565b602082019050919050565b6000614245602183614950565b91506142508261515d565b604082019050919050565b6000614268602f83614950565b9150614273826151ac565b604082019050919050565b600061428b602183614950565b9150614296826151fb565b604082019050919050565b60006142ae603183614950565b91506142b98261524a565b604082019050919050565b600060808301600083015184820360008601526142e18282613e59565b91505060208301516142f66020860182614327565b5060408301516143096040860182614327565b50606083015161431c6060860182613e02565b508091505092915050565b61433081614a91565b82525050565b61433f81614a91565b82525050565b60006143518285613ecb565b915061435d8284613ecb565b91508190509392505050565b600060208201905061437e6000830184613d20565b92915050565b60006080820190506143996000830187613d20565b6143a66020830186613d20565b6143b36040830185614336565b81810360608301526143c58184613e20565b905095945050505050565b600060208201905081810360008301526143ea8184613d2f565b905092915050565b6000602082019050818103600083015261440c8184613d8d565b905092915050565b60006020820190506144296000830184613e11565b92915050565b600060208201905081810360008301526144498184613e92565b905092915050565b6000608082019050818103600083015261446b8187613e92565b905061447a6020830186614336565b6144876040830185614336565b6144946060830184613e11565b95945050505050565b600060208201905081810360008301526144b78184613efc565b905092915050565b600060208201905081810360008301526144d881613f7c565b9050919050565b600060208201905081810360008301526144f881613f9f565b9050919050565b6000602082019050818103600083015261451881613fc2565b9050919050565b6000602082019050818103600083015261453881613fe5565b9050919050565b6000602082019050818103600083015261455881614008565b9050919050565b600060208201905081810360008301526145788161402b565b9050919050565b600060208201905081810360008301526145988161404e565b9050919050565b600060208201905081810360008301526145b881614071565b9050919050565b600060208201905081810360008301526145d881614094565b9050919050565b600060208201905081810360008301526145f8816140b7565b9050919050565b60006020820190508181036000830152614618816140da565b9050919050565b60006020820190508181036000830152614638816140fd565b9050919050565b6000602082019050818103600083015261465881614120565b9050919050565b6000602082019050818103600083015261467881614143565b9050919050565b6000602082019050818103600083015261469881614166565b9050919050565b600060208201905081810360008301526146b881614189565b9050919050565b600060208201905081810360008301526146d8816141ac565b9050919050565b600060208201905081810360008301526146f8816141cf565b9050919050565b60006020820190508181036000830152614718816141f2565b9050919050565b6000602082019050818103600083015261473881614215565b9050919050565b6000602082019050818103600083015261475881614238565b9050919050565b600060208201905081810360008301526147788161425b565b9050919050565b600060208201905081810360008301526147988161427e565b9050919050565b600060208201905081810360008301526147b8816142a1565b9050919050565b60006020820190506147d46000830184614336565b92915050565b600060c0820190506147ef6000830189614336565b6147fc6020830188613e11565b6148096040830187613e11565b6148166060830186613d20565b6148236080830185614336565b61483060a0830184614336565b979650505050505050565b6000614845614856565b90506148518282614b0f565b919050565b6000604051905090565b600067ffffffffffffffff82111561487b5761487a614c47565b5b61488482614c76565b9050602081019050919050565b6000819050602082019050919050565b6000819050602082019050919050565b60008190508160005260206000209050919050565b600081519050919050565b600081519050919050565b600081519050919050565b600081519050919050565b6000602082019050919050565b6000602082019050919050565b600082825260208201905092915050565b600082825260208201905092915050565b600082825260208201905092915050565b600082825260208201905092915050565b600082825260208201905092915050565b600081905092915050565b600061497782614a91565b915061498283614a91565b9250827fffffffffffffffffffffffffffffffffffffffffffffffffffffffffffffffff038211156149b7576149b6614bba565b5b828201905092915050565b60006149cd82614a91565b91506149d883614a91565b9250826149e8576149e7614be9565b5b828204905092915050565b60006149fe82614a91565b9150614a0983614a91565b925082821015614a1c57614a1b614bba565b5b828203905092915050565b6000614a3282614a71565b9050919050565b60008115159050919050565b60007fffffffff0000000000000000000000000000000000000000000000000000000082169050919050565b600073ffffffffffffffffffffffffffffffffffffffff82169050919050565b6000819050919050565b82818337600083830152505050565b60005b83811015614ac8578082015181840152602081019050614aad565b83811115614ad7576000848401525b50505050565b60006002820490506001821680614af557607f821691505b60208210811415614b0957614b08614c18565b5b50919050565b614b1882614c76565b810181811067ffffffffffffffff82111715614b3757614b36614c47565b5b80604052505050565b6000614b4b82614a91565b91507fffffffffffffffffffffffffffffffffffffffffffffffffffffffffffffffff821415614b7e57614b7d614bba565b5b600182019050919050565b6000614b9482614a91565b9150614b9f83614a91565b925082614baf57614bae614be9565b5b828206905092915050565b7f4e487b7100000000000000000000000000000000000000000000000000000000600052601160045260246000fd5b7f4e487b7100000000000000000000000000000000000000000000000000000000600052601260045260246000fd5b7f4e487b7100000000000000000000000000000000000000000000000000000000600052602260045260246000fd5b7f4e487b7100000000000000000000000000000000000000000000000000000000600052604160045260246000fd5b6000601f19601f8301169050919050565b7f566f7573206e6520706f7576657a207061732064656c656775657220766f747260008201527f6520766f7465206120766f75732d6d656d650000000000000000000000000000602082015250565b7f4552433732313a207472616e7366657220746f206e6f6e20455243373231526560008201527f63656976657220696d706c656d656e7465720000000000000000000000000000602082015250565b7f566f75732065746573207061732070726f7072696f0000000000000000000000600082015250565b7f4552433732313a207472616e736665722066726f6d20696e636f72726563742060008201527f6f776e6572000000000000000000000000000000000000000000000000000000602082015250565b7f4552433732313a20746f6b656e20616c7265616479206d696e74656400000000600082015250565b7f6c65207365636f6e6420746f7572206573742066696e69740000000000000000600082015250565b7f6c65207072656d69657220746f7572206573742066696e697400000000000000600082015250565b7f4552433732313a207472616e7366657220746f20746865207a65726f2061646460008201527f7265737300000000000000000000000000000000000000000000000000000000602082015250565b7f4552433732313a20617070726f766520746f2063616c6c657200000000000000600082015250565b7f416c726561647920766f74656400000000000000000000000000000000000000600082015250565b7f4552433732313a206f70657261746f7220717565727920666f72206e6f6e657860008201527f697374656e7420746f6b656e0000000000000000000000000000000000000000602082015250565b7f4552433732313a20617070726f76652063616c6c6572206973206e6f74206f7760008201527f6e6572206e6f7220617070726f76656420666f7220616c6c0000000000000000602082015250565b7f4552433732313a2062616c616e636520717565727920666f7220746865207a6560008201527f726f206164647265737300000000000000000000000000000000000000000000602082015250565b7f4552433732313a206f776e657220717565727920666f72206e6f6e657869737460008201527f656e7420746f6b656e0000000000000000000000000000000000000000000000602082015250565b7f45524337323155524953746f726167653a2055524920736574206f66206e6f6e60008201527f6578697374656e7420746f6b656e000000000000000000000000000000000000602082015250565b7f696c20612064656a6120766f7465000000000000000000000000000000000000600082015250565b7f4552433732313a206d696e7420746f20746865207a65726f2061646472657373600082015250565b7f45524337323155524953746f726167653a2055524920717565727920666f722060008201527f6e6f6e6578697374656e7420746f6b656e000000000000000000000000000000602082015250565b7f4552433732313a20617070726f76656420717565727920666f72206e6f6e657860008201527f697374656e7420746f6b656e0000000000000000000000000000000000000000602082015250565b7f6c65207072656d69657220746f7572206e6f742066696e697368000000000000600082015250565b7f566f7573206e276176657a20706173206c652064726f697420646520766f746560008201527f7200000000000000000000000000000000000000000000000000000000000000602082015250565b7f4552433732314d657461646174613a2055524920717565727920666f72206e6f60008201527f6e6578697374656e7420746f6b656e0000000000000000000000000000000000602082015250565b7f4552433732313a20617070726f76616c20746f2063757272656e74206f776e6560008201527f7200000000000000000000000000000000000000000000000000000000000000602082015250565b7f4552433732313a207472616e736665722063616c6c6572206973206e6f74206f60008201527f776e6572206e6f7220617070726f766564000000000000000000000000000000602082015250565b6152a281614a27565b81146152ad57600080fd5b50565b6152b981614a39565b81146152c457600080fd5b50565b6152d081614a45565b81146152db57600080fd5b50565b6152e781614a91565b81146152f257600080fd5b5056fea2646970667358221220e06939bfaadd05ac2e828e3fdc66fff6e6c4d2659521e27c36261241871394db64736f6c63430008040033",
	"linkReferences": {},
	"deployedLinkReferences": {}
}